:100000000C94FE000C941B010C941B010C941B011E
:100010000C941B010C941B010C941B010C941B01F0
:100020000C941B010C941B010C941D050C94890568
:100030000C941B010C941B010C941B010C941B01D0
:100040000C941B010C941B010C941B010C941B01C0
:100050000C941B010C941B010C941B010C941B01B0
:100060000C941B010C941B010C941B010C941B01A0
:100070000C941B010C941B010C941B010C941B0190
:100080000C941B010C941B010C941B010C941B0180
:100090000C941B010C941B010C941B010C941B0170
:1000A0000C941B010C941B010C941B0110FF0FFC02
:1000B0000EF90DF70BF509F307F204F101F0FFF06B
:1000C000FCF1F9F2F7F3F5F5F3F7F2F9F1FCF0FFD3
:1000D000F001F104F207F309F50BF70DF90EFC0F2F
:1000E000FF100110040F070E090D0B0B0D090E0771
:1000F0000F041001000001C10601C1261201000217
:1001000000000020C0167F0400010102000105016B
:100110000902A1010509190129031500250195030B
:1001200075018102950175058103050109300931C9
:100130001581257F7508950281060938950181068C
:10014000C00631FF0974A1537508150026FF0095FC
:100150002009758102C009023B00020100C032097A
:1001600004000001030101000921110100012233F3
:1001700000070583030400010904010001030000D6
:100180000009211101000122150007058403200048
:10019000010403090410034D007900740063006832
:1001A0000065006C000000140354007200610063DD
:1001B000006B00620061006C006C00000000010038
:1001C00000FC00120002000056013B002200000E5D
:1001D00001330021000068010900220100410115DE
:1001E00000210100810109000300009101040103C5
:1001F000090495011002030904A7011411241FBE6C
:10020000CFEFDAE0DEBFCDBF11E0A0E0B1E0E2EE7B
:10021000FBE102C005900D92AA30B107D9F711E0B9
:10022000AAE0B1E001C01D92AE30B107E1F70E9433
:100230001D010C94EF0D0C940000DF93CF93CDB70C
:10024000DEB7EA970FB6F894DEBF0FBECDBFAAE2C5
:10025000B0E0EAE2F0E0808184608C93ABE2B0E051
:10026000EBE2F0E080818B7F8C9380E090E0A0E275
:10027000B1E48DAB9EABAFABB8AF6DA97EA98FA932
:1002800098AD20E030E04AEF54E40E94340ADC01EB
:10029000CB0189AB9AABABABBCAB69A97AA98BA9F3
:1002A0009CA920E030E040E85FE30E948E0B8823A9
:1002B0002CF481E090E098AB8FA73FC069A97AA9A0
:1002C0008BA99CA920E03FEF4FE757E40E942E0B3B
:1002D00018164CF56DA97EA98FA998AD20E030E0E5
:1002E00040E251E40E94340ADC01CB01BC01CD01A3
:1002F0000E945E08DC01CB0198AB8FA70FC088EC91
:1003000090E09EA78DA78DA59EA50197F1F79EA7CA
:100310008DA78FA598A9019798AB8FA78FA598A9AE
:10032000009769F714C069A97AA98BA99CA90E94B2
:100330005E08DC01CB0198AB8FA78FA598A99CA77D
:100340008BA78BA59CA50197F1F79CA78BA7ABE288
:10035000B0E0EBE2F0E0808184608C9380E090E09C
:10036000A0E2B1E48FA398A7A9A7BAA76FA178A527
:1003700089A59AA520E030E04AEF54E40E94340AAF
:10038000DC01CB018BA39CA3ADA3BEA36BA17CA17D
:100390008DA19EA120E030E040E85FE30E948E0B3B
:1003A00088232CF481E090E09AA389A33FC06BA13D
:1003B0007CA18DA19EA120E03FEF4FE757E40E9472
:1003C0002E0B18164CF56FA178A589A59AA520E0EB
:1003D00030E040E251E40E94340ADC01CB01BC0170
:1003E000CD010E945E08DC01CB019AA389A30FC056
:1003F00088EC90E098A38F8F8F8D98A10197F1F7EB
:1004000098A38F8F89A19AA101979AA389A389A103
:100410009AA1009769F714C06BA17CA18DA19EA140
:100420000E945E08DC01CB019AA389A389A19AA14D
:100430009E8F8D8F8D8D9E8D0197F1F79E8F8D8F65
:100440000E941A030E9499030E94C3038823E1F3C8
:1004500080E090E0AAEFB3E4898F9A8FAB8FBC8FD6
:10046000698D7A8D8B8D9C8D20E030E04AEF54E4CD
:100470000E94340ADC01CB018D8B9E8BAF8BB88F31
:100480006D897E898F89988D20E030E040E85FE3B8
:100490000E948E0B88232CF481E090E09C8B8B8B48
:1004A0003FC06D897E898F89988D20E03FEF4FE7AF
:1004B00057E40E942E0B18164CF5698D7A8D8B8DA2
:1004C0009C8D20E030E040E251E40E94340ADC01DF
:1004D000CB01BC01CD010E945E08DC01CB019C8BED
:1004E0008B8B0FC088EC90E09A8B898B89899A89D5
:1004F0000197F1F79A8B898B8B899C8901979C8B4B
:100500008B8B8B899C89009769F714C06D897E89D4
:100510008F89988D0E945E08DC01CB019C8B8B8BB0
:100520008B899C89988B8F878F8598890197F1F7A4
:10053000988B8F8783E00E9478038AAF84E00E94C3
:10054000780389AF8AAD69AD40E00E94F70380E08F
:1005500090E0A0EAB1E48B879C87AD87BE876B856E
:100560007C858D859E8520E030E04AEF54E40E9432
:10057000340ADC01CB018F839887A987BA876F8102
:10058000788589859A8520E030E040E85FE30E9425
:100590008E0B88232CF481E090E09E838D833FC0F6
:1005A0006F81788589859A8520E03FEF4FE757E492
:1005B0000E942E0B18164CF56B857C858D859E85CB
:1005C00020E030E040E251E40E94340ADC01CB013B
:1005D000BC01CD010E945E08DC01CB019E838D83AE
:1005E0000FC088EC90E09C838B838B819C8101976A
:1005F000F1F79C838B838D819E8101979E838D83F0
:100600008D819E81009769F795CF6F817885898567
:100610009A850E945E08DC01CB019E838D838D81CB
:100620009E819A83898389819A810197F1F79A83C0
:10063000898380CFDF93CF93CDB7DEB7A4E2B0E05C
:10064000E4E2F0E0808186608C93AAE2B0E0EAE226
:10065000F0E0808188608C93A4E2B0E0E4E2F0E016
:10066000808181608C93A5E2B0E0E5E2F0E08081DA
:1006700081608C93ECE4F0E08FE58083CF91DF9193
:100680000895DF93CF930F92CDB7DEB78983EEE461
:10069000F0E089818083EDE4F0E080818823DCF75D
:1006A000EEE4F0E080810F90CF91DF910895DF9329
:1006B000CF9300D0CDB7DEB789836A83ABE2B0E0D9
:1006C000EBE2F0E08081877F8C93898180680E94D3
:1006D00041038A810E944103ABE2B0E0EBE2F0E02B
:1006E000808188608C930F900F90CF91DF91089557
:1006F000DF93CF9300D0CDB7DEB78A83ABE2B0E013
:10070000EBE2F0E08081877F8C938A810E94410335
:100710008FEF0E9441038983ABE2B0E0EBE2F0E0AF
:10072000808188608C9389810F900F90CF91DF91A9
:100730000895DF93CF93CDB7DEB7E7EDF0E081E02A
:100740008083E8EDF0E080EA8083E9E4F0E082E095
:100750008083E9E4F0E08081882F90E081709070E0
:100760000097B9F3E8EDF0E080E98083E0EEF0E097
:10077000108210920A01E2EEF0E08CE0808378941F
:10078000CF91DF910895DF93CF93CDB7DEB78091FE
:100790000A01CF91DF910895DF93CF9300D000D06D
:1007A000CDB7DEB78A836B834C8319828A81882315
:1007B00019F08981816089838B81882319F089816F
:1007C000846089838C81882319F089818260898380
:1007D000898180930C0180E060E040E00E94F70393
:1007E0000F900F900F900F90CF91DF910895DF93AE
:1007F000CF9300D000D000D0CDB7DEB78B836C8311
:100800004D8380910A01882319F48FEF8E835EC097
:100810008B81803811F481E88B838C81803811F4CE
:1008200081E88C838D81803811F481E88D83EFE538
:10083000F0E080818A83F894E9EEF0E083E0808341
:10084000E4EEF0E080818E5C8983E8EEF0E0808168
:10085000882F90E0807290700097F1F4EFE5F0E05F
:100860008A81808380910A01882319F48FEF8E8317
:100870002DC0E4EEF0E090818981981719F48FEF94
:100880008E8324C0EFE5F0E080818A83F894E9EE5E
:10089000F0E083E08083D9CFE1EFF0E080910C01BC
:1008A0008083E1EFF0E08B818083E1EFF0E08C81E9
:1008B0008083E1EFF0E08D818083E8EEF0E08AE371
:1008C0008083EFE5F0E08A8180831E828E81269608
:1008D0000FB6F894DEBF0FBECDBFCF91DF91089564
:1008E000DF93CF9300D000D0CDB7DEB78B8380915C
:1008F0000A01882319F48FEF8C836AC0EFE5F0E0DA
:1009000080818983F894E9EEF0E084E0808380912F
:100910000D01882391F0E8EEF0E08081882F90E0CF
:1009200080729070009739F4EFE5F0E08981808360
:100930008FEF8C834DC010920D01E4EEF0E08081CA
:100940008C5F8A83E8EEF0E08081882F90E08072EF
:100950009070009709F5EFE5F0E089818083E4EE7F
:10096000F0E090818A81981731F481E080930D0145
:100970008FEF8C832DC080910A01882319F48FEFAB
:100980008C8326C0EFE5F0E080818983F894E9EE5E
:10099000F0E084E08083D6CFE1EFF0E08B818083CC
:1009A000E8EEF0E08081882F90E0807290700097F0
:1009B00039F4E8EEF0E08AE3808310920B0103C083
:1009C00082E080930B01EFE5F0E0898180831C8257
:1009D0008C810F900F900F900F90CF91DF91089521
:1009E000DF93CF930F92CDB7DEB7EFE5F0E08081D4
:1009F0008983F89480910B018823B9F0E9EEF0E047
:100A000084E0808303C0E1EFF0E01082E8EEF0E0E4
:100A10008081882F90E0807290700097A1F7E8EEB7
:100A2000F0E08AE3808310920B01EFE5F0E089812A
:100A300080830F90CF91DF9108951F920F920FB690
:100A40000F9211248F939F93EF93FF93DF93CF9394
:100A500000D0CDB7DEB7E1EEF0E080818A83E1EE31
:100A6000F0E010828A81882F90E088709070009763
:100A7000A1F0E9EEF0E01082EBEEF0E081E080839F
:100A8000ECEEF0E01082EDEEF0E082E28083E0EF49
:100A9000F0E088E0808310920A018A81882F90E03C
:100AA00084709070009741F180910A01882321F1B0
:100AB00080910B01898389818823F1F0898181509C
:100AC0008983898180930B0189818823A9F4E9EEC8
:100AD000F0E084E0808303C0E1EFF0E01082E8EE14
:100AE000F0E08081882F90E0807290700097A1F7ED
:100AF000E8EEF0E08AE380830F900F90CF91DF91D2
:100B0000FF91EF919F918F910F900FBE0F901F90CB
:100B100018951F920F920FB60F9211242F933F93A7
:100B20004F935F936F937F938F939F93AF93BF93F5
:100B3000EF93FF93DF93CF93CDB7DEB7E597DEBF9B
:100B4000CDBFE9EEF0E01082E8EEF0E0808189AB05
:100B500089A9882F90E088709070009709F479C275
:100B6000E1EFF0E0808188A7E1EFF0E080818FA3E2
:100B7000E1EFF0E08081882F90E09EA38DA3E1EF6C
:100B8000F0E08081882F90E0982F88279C018DA12C
:100B90009EA1822B932B9EA38DA3E1EFF0E0808199
:100BA000882F90E09CA38BA3E1EFF0E08081882F59
:100BB00090E0982F88279C018BA19CA1822B932BDE
:100BC0009CA38BA3E1EFF0E08081882F90E09AA3B3
:100BD00089A3E1EFF0E08081882F90E0982F8827AB
:100BE0009C0189A19AA1822B932B9AA389A3E8EE59
:100BF000F0E082EF80838FA1863009F0D5C08DEBC5
:100C000091E098AB8FA71CA68CA5893028F0EBEE5D
:100C1000F0E081E2808321C28FA598A99B8F8A8F03
:100C20008A8D9B8DFC0185919491998F888FFB8F84
:100C3000EA8F888D998D98A38F8F2F8D38A18DA1E4
:100C40009EA12817390731F08FA598A9079698AB70
:100C50008FA75DC08FA598A9029698AB8FA78FA587
:100C600098A99F8B8E8B8E899F89FC018591949189
:100C70009D8B8C8BFF8BEE8B8C899D8998A38F8F9E
:100C80002F8D38A18BA19CA12817390731F08FA592
:100C900098A9059698AB8FA73AC08FA598A90296F8
:100CA00098AB8FA78FA598A99B8B8A8B8A899B89E4
:100CB000FC0185919491998B888BFB8BEA8B8889B9
:100CC00099899E8F8D8F8FA598A9029698AB8FA733
:100CD0008FA598A99F878E87EE85FF8584918D8744
:100CE0008D858C8F89A19AA19BAB8AAB8AA99BA980
:100CF0008F3F910529F020F08FEF90E09BAB8AABFE
:100D00009AA99AA79AA58C8D891728F006C08CA558
:100D10008F5F8CA779CF8C8D8AA7E8EEF0E0808179
:100D20008CA78CA5882F90E0857090700097A9F310
:100D30008CA5882F90E084709070009709F08DC189
:100D40002AA52CAB8CA9813210F090E29CAB2CA987
:100D50002BA78BA58CA714C0A1EFB0E08D8D9E8D25
:100D60009C878B878D8D9E8D01969E8F8D8FEB85B9
:100D7000FC8584918A878A858C938CA581508CA769
:100D80008CA5882349F79AA58BA5292F281B822F8C
:100D90008AA70E9453088AA5882309F0BECF8BA595
:100DA000803209F4BACF59C18FA1853051F40E9425
:100DB00053080E944308E3EEF0E08DA18068808331
:100DC0004CC18FA1893009F05BC088A5882309F048
:100DD00057C08DA180930A010E94530884EF90E0D0
:100DE0009EA78DA781E08CA73FC0E9EEF0E08CA51F
:100DF00080838DA59EA5998788878DA59EA5019640
:100E00009EA78DA7E885F98584918F838F8189A717
:100E1000EBEEF0E089A5808389A5882311F1ACEE83
:100E2000B0E08DA59EA59E838D838DA59EA5019680
:100E30009EA78DA7ED81FE8184918C838C818C93FC
:100E4000ADEEB0E08DA59EA59B838A838DA59EA562
:100E500001969EA78DA7EA81FB8184918983898170
:100E60008C938CA58F5F8CA78CA5853008F4BDCFA3
:100E7000EAEEF0E08EE18083EAEEF0E01082EDC071
:100E80008FA1883069F488A5803851F40E94430806
:100E9000E1EFF0E080910A0180830E945308DDC0F9
:100EA0008FA1882311F50E9443081CA688A58238CB
:100EB00091F4E9EEF0E08BA18083EBEEF0E080812D
:100EC000882F90E080729070009711F081E08CA7DD
:100ED000E9EEF0E01082E1EFF0E08CA58083E1EF35
:100EE000F0E010820E945308B8C08FA1813019F041
:100EF0008FA18330A1F588A5823089F58DA19EA1AF
:100F0000009769F58BA18F778CA78CA5882339F181
:100F10008CA5853020F50E945308E9EEF0E08CA501
:100F200080838FA1833029F4EBEEF0E081E28083AF
:100F300094C0EBEEF0E089E18083EAEEF0E08CA56E
:100F4000282F30E081E090E0022E02C0880F991F28
:100F50000A94E2F78083EAEEF0E010827EC08BA173
:100F60009CA1009791F588A5813A19F58FA1813050
:100F700099F40E944308E1EFF0E080910C01808336
:100F8000E1EFF0E01082E1EFF0E01082E1EFF0E05D
:100F900010820E94530861C08FA1833051F40E94D7
:100FA0004308E1EFF0E08091000180830E94530844
:100FB00054C088A5813249F48FA18B3031F48DA1C2
:100FC000809300010E94530848C08BA19CA18130EE
:100FD000910509F03EC08FA18130D9F588A5813AED
:100FE000C1F589A18AA7E8EEF0E080818CA78CA5E5
:100FF000882F90E0857090700097A9F38CA5882FBA
:1010000090E084709070009741F58AA58DAB9DA902
:10101000913210F020E22DAB8DA98BA78BA58CA768
:1010200006C0E1EFF0E010828CA581508CA78CA562
:101030008823B9F79AA58BA5292F281B822F8AA769
:101040000E9453088AA5882371F68BA5803259F235
:1010500004C0EBEEF0E081E28083E596DEBFCDBF19
:10106000CF91DF91FF91EF91BF91AF919F918F91C0
:101070007F916F915F914F913F912F910F900FBE94
:101080000F901F901895DF93CF93CDB7DEB7E8EEA2
:10109000F0E08081882F90E0817090700097B9F324
:1010A000CF91DF910895DF93CF93CDB7DEB7E8EE10
:1010B000F0E08EEF8083CF91DF910895EF92FF9261
:1010C0000F931F937B018C0120E030E040E05FE450
:1010D0000E945E0B88238CF0C801B70120E030E04D
:1010E00040E05FE40E94D6090E94BE0B9B01AC0168
:1010F000205030404040504806C0C801B7010E940F
:10110000BE0B9B01AC01B901CA011F910F91FF9069
:10111000EF900895A0E0B0E0E0E9F8E00C94B80D9D
:10112000DC012B01FA019C91923008F439C1EB01EA
:101130008881823008F433C1943069F4843009F036
:101140002FC111969C9111978981981709F428C194
:10115000A1E0B1E025C1843009F421C18230A9F4B5
:10116000923009F01DC19A01AD0188E0EA010990B1
:10117000AE01E90109929E018150C1F7E201898126
:1011800011969C918923818308C1923009F407C18B
:1011900012962D903C901397EB018A819B811496B7
:1011A000AD90BD90CD90DC901797EC80FD800E81C6
:1011B0001F819101281B390BB90137FF04C0662735
:1011C0007727621B730B603271050CF061C0121639
:1011D00013066CF537014801062E04C096948794D7
:1011E000779467940A94D2F721E030E040E050E031
:1011F00004C0220F331F441F551F6A95D2F7215098
:101200003040404050402E213F21402351232115A2
:1012100031054105510521F021E030E040E050E08A
:1012200079018A01E628F728082919293CC0232BCF
:10123000D1F1260E371E35014601062E04C09694C4
:101240008794779467940A94D2F721E030E040E0E5
:1012500050E004C0220F331F441F551F6A95D2F778
:1012600021503040404050402A213B214C215D21FB
:10127000211531054105510521F021E030E040E024
:1012800050E059016A01A628B728C828D9280BC000
:10129000821593052CF01C01AA24BB24650103C010
:1012A000EE24FF24870111969C91D20111968C9116
:1012B000981709F445C0992339F0A80197012A1914
:1012C0003B094C095D0906C0A60195012E193F098D
:1012D000400B510B57FD08C01182338222822483B8
:1012E0003583468357831DC081E081833382228208
:1012F00088279927DC01821B930BA40BB50B8483F1
:101300009583A683B7830DC0220F331F441F551F3B
:101310002483358346835783828193810197938306
:1013200082832481358146815781DA01C901019781
:10133000A109B1098F5F9F4FAF4FBF4328F30BC087
:10134000918333822282EA0CFB1C0C1D1D1DE4825A
:10135000F5820683178383E080832481358146816B
:10136000578157FF1AC0C901AA2797FDA095BA2F28
:1013700081709070A070B0705695479537952795FD
:10138000822B932BA42BB52B84839583A683B783C1
:1013900082819381019693838283DF0101C0D20110
:1013A000CD01CDB7DEB7E2E10C94D40DA0E2B0E000
:1013B000ECEDF9E00C94C40D69837A838B839C83F4
:1013C0002D833E834F835887E9E0EE2EF12CEC0EFF
:1013D000FD1ECE010196B7010E94E70C8E010F5E43
:1013E0001F4FCE010596B8010E94E70C8A8991E053
:1013F00089278A8BC701B801AE01475E5F4F0E9403
:101400008A080E94120CA096E6E00C94E00DA0E27F
:10141000B0E0EDE0FAE00C94C40D69837A838B832D
:101420009C832D833E834F835887F9E0EF2EF12C68
:10143000EC0EFD1ECE010196B7010E94E70C8E0155
:101440000F5E1F4FCE010596B8010E94E70CC70141
:10145000B801AE01475E5F4F0E948A080E94120CDD
:10146000A096E6E00C94E00DA0E2B0E0EAE3FAE03A
:101470000C94B80D69837A838B839C832D833E8380
:101480004F835887CE010196BE01675F7F4F0E9450
:10149000E70CCE010596BE016F5E7F4F0E94E70C00
:1014A0009985923088F089898230C8F0943019F497
:1014B000823051F404C0843029F4923081F481E008
:1014C00091E0C6C0923049F420E09A858A89981349
:1014D00021E02A87CE010996BBC0823049F420E082
:1014E0009A858A89981321E02A8BCE014196B0C053
:1014F0002D843E844F8458886D887E888F88988C90
:10150000EE24FF248701AA24BB24650140E050E0BB
:1015100060E070E0E0E0F0E0C10181709070892B44
:10152000E9F0E60CF71C081D191D9A01AB012A0D04
:101530003B1D4C1D5D1D80E090E0A0E0B0E0E61496
:10154000F7040805190520F481E090E0A0E0B0E080
:10155000BA01A901480F591F6A1F7B1FAA0CBB1CA7
:10156000CC1CDD1C97FE08C081E090E0A0E0B0E05C
:10157000A82AB92ACA2ADB2A3196E032F10549F0B5
:10158000660C771C881C991C5694479437942794B2
:10159000C3CFFA85EA892B893C898B859C85280FE6
:1015A000391F2E5F3F4F17C0CA0181709070892B81
:1015B00061F016950795F794E79480E090E0A0E03D
:1015C000B0E8E82AF92A0A2B1B2B769567955795E0
:1015D00047952F5F3F4F77FDE7CF0CC0440F551F56
:1015E000661F771F17FD4160EE0CFF1C001F111FC7
:1015F00021503040403090E0590790E0690790E476
:10160000790760F32B8F3C8FDB01CA018F779070D5
:10161000A070B07080349105A105B10561F447FD5B
:101620000AC0E114F1040105110529F0405C5F4F87
:101630006F4F7F4F40781A8EFE1711F081E08A8F2E
:101640004D8F5E8F6F8F78A383E0898FCE0149968F
:101650000E94120CA096E2E10C94D40DA8E1B0E037
:10166000E4E3FBE00C94C40D69837A838B839C8351
:101670002D833E834F83588789E0E82EF12CEC0EB2
:10168000FD1ECE010196B7010E94E70C8E010F5E90
:101690001F4FCE010596B8010E94E70C8985823064
:1016A00040F08989823028F0C701B8010E945F0D9F
:1016B00001C08FEF6896E6E00C94E00DA8E1B0E081
:1016C000E4E6FBE00C94C40D69837A838B839C83EE
:1016D0002D833E834F83588789E0E82EF12CEC0E52
:1016E000FD1ECE010196B7010E94E70C8E010F5E30
:1016F0001F4FCE010596B8010E94E70C8985823004
:1017000040F08989823028F0C701B8010E945F0D3E
:1017100001C08FEF6896E6E00C94E00DA8E1B0E020
:10172000E4E9FBE00C94C40D69837A838B839C838A
:101730002D833E834F83588789E0E82EF12CEC0EF1
:10174000FD1ECE010196B7010E94E70C8E010F5ECF
:101750001F4FCE010596B8010E94E70C89858230A3
:1017600040F08989823028F0C701B8010E945F0DDE
:1017700001C081E06896E6E00C94E00DACE0B0E0DA
:10178000E4ECFBE00C94C80D69837A838B839C8323
:10179000CE010196BE016B5F7F4F0E94E70C8D81E9
:1017A000823061F1823050F1843021F48E818823BF
:1017B00051F12EC02F81388537FD20C06E812F3129
:1017C00031051CF06623F9F023C08EE190E0821B06
:1017D000930B29853A854B855C8504C056954795C2
:1017E000379527958A95D2F76623B1F050954095A5
:1017F000309521953F4F4F4F5F4F0EC020E030E0B6
:1018000040E050E009C02FEF3FEF4FEF5FE704C02B
:1018100020E030E040E050E8B901CA012C96E2E057
:101820000C94E40DDF92EF92FF920F931F93FC0153
:10183000E480F58006811781D1808081823048F470
:1018400080E090E0A0E1B0E0E82AF92A0A2B1B2B07
:10185000A5C0843009F49FC0823021F4EE24FF2417
:10186000870105C0E114F1040105110519F4E0E058
:10187000F0E096C0628173819FEF623879070CF0C7
:101880005BC022E83FEF261B370B2A3131052CF0D5
:1018900020E030E040E050E02AC0B801A701022E6D
:1018A00004C076956795579547950A94D2F781E0DD
:1018B00090E0A0E0B0E004C0880F991FAA1FBB1FF2
:1018C0002A95D2F70197A109B1098E219F21A02362
:1018D000B1230097A105B10521F081E090E0A0E0DF
:1018E000B0E09A01AB01282B392B4A2B5B2BDA0194
:1018F000C9018F779070A070B07080349105A105F8
:10190000B10539F427FF09C0205C3F4F4F4F5F4FAF
:1019100004C0215C3F4F4F4F5F4FE0E0F0E02030CC
:10192000A0E03A07A0E04A07A0E45A0710F0E1E07F
:10193000F0E079018A0127C06038710564F5FB0188
:10194000E158FF4FD801C7018F779070A070B07039
:1019500080349105A105B10539F4E7FE0DC080E49E
:1019600090E0A0E0B0E004C08FE390E0A0E0B0E041
:10197000E80EF91E0A1F1B1F17FF05C016950795D5
:10198000F794E794319687E016950795F794E794D6
:101990008A95D1F705C0EE24FF248701EFEFF0E030
:1019A0006E2F679566276795902F9F77D794DD24D4
:1019B000D7948E2F8695492F462B582F5D29B70136
:1019C000CA011F910F91FF90EF90DF900895FC01E5
:1019D000DB01408151812281622F6F7770E0221FED
:1019E0002227221F9381892F880F822B282F30E0F6
:1019F000991F9927991F11969C93119721153105CD
:101A0000A9F5411551056105710511F482E037C052
:101A100082E89FEF13969C938E9312979A01AB01E5
:101A200067E0220F331F441F551F6A95D1F783E0EB
:101A30008C930DC0220F331F441F551F12968D919A
:101A40009C911397019713969C938E931297203035
:101A500080E0380780E0480780E4580758F3149680
:101A60002D933D934D935C93179708952F3F310528
:101A700079F4411551056105710519F484E08C93E1
:101A8000089564FF03C081E08C9312C01C9210C0C3
:101A90002F57304013963C932E93129783E08C93EC
:101AA00087E0440F551F661F771F8A95D1F7706432
:101AB00014964D935D936D937C93179708951F93A0
:101AC000DC01FB019C91923008F447C08081823098
:101AD00008F443C0943051F411961C91843099F568
:101AE0008181682F70E0611B71093FC0843021F053
:101AF000923031F48230B9F18181882389F12DC08F
:101B000011961C9111978230F1F081811817D9F448
:101B100012962D913C91139782819381821793079E
:101B200094F028173907BCF014968D919D910D9073
:101B3000BC91A02D24813581468157812817390712
:101B40004A075B0718F4112341F00AC08217930774
:101B5000A407B50740F4112319F061E070E005C057
:101B60006FEF7FEF02C060E070E0CB011F9108953E
:101B70002F923F924F925F926F927F928F929F929D
:101B8000AF92BF92CF92DF92EF92FF920F931F938B
:101B9000CF93DF93CDB7DEB7CA1BDB0B0FB6F8943C
:101BA000DEBF0FBECDBF09942A88398848885F847C
:101BB0006E847D848C849B84AA84B984C884DF80ED
:101BC000EE80FD800C811B81AA81B981CE0FD11DD1
:101BD0000FB6F894DEBF0FBECDBFED010895F894A7
:021BE000FFCF35
:0A1BE20001000000000000000000F8
:00000001FF
